:20000000003C0120593F010039FB021039FB021039FB021039FB021039FB021039FB021046
:1C00200039FB021039FB021039FB021039FB021039FB021039FB021011FB021002
:20003C002DE9F04FBE4D0220A86000262E60ADF12C0DEE604FF0FF306860102019F05CF87E
:20005C00286140B1066005F1140141602C69866005F15007E760B4A068610827EF614FF00E
:20007C00FF34AC6140202D6219F046F805F114043146D24B686218B1CA00865082185360CC
:20009C00491C0829F7DBABA028650327AF654FF0FF336B651820ED6519F02EF8286658B135
:2000BC00A8A10160C649A9A2416007468260F96017B1A8A038617961AE62012028634FF079
:2000DC00FF37EF6208206C6319F016F8A86318B1066005F13C014160A0A00627E8634FF06A
:2000FC00FF346F6405F128032C643020AB6419F003F80746EF64C8B19EA10160B149416076
:20011C009EA28260002FF96010D09EA03861A0A2796107F118042260F96107D09EA03862A7
:20013C00A2A2796207F128042260F96219F0D8FC14F0D2FC041C00F0A78518F0E9F8A24AC3
:20015C00314632F80C7F002F40F09A854FF6F878A2F8008054609D4F397096606168F960A9
:20017C0018F0A2FA07F148043146204619F0B4FC974841F2883233463C619649009007F19C
:20019C00540014F04BFE944C94493246152304F114000090102009F03BF8914910203246BE
:2001BC00022309F035F84FF480600121224605F04BFF40F202400121621C05F045FF40F26D
:2001DC0003400121A21C05F03FFF40F206400121E21C05F039FF221D40F21140012105F00F
:2001FC0033FF621D40F21B40012105F02DFFA21D40F20D40012105F027FFE21D40F2124064
:20021C00012105F021FF04F1080240F20C40012105F01AFF04F109024FF48360012105F0A1
:20023C0013FF04F10A0240F20740012105F00CFF04F10B0240F21440012105F005FF04F15C
:20025C000C0240F21640012105F0FEFE04F10D0240F21540012105F0F7FE624910204FF028
:20027C00FF3208F0D5FF604910204FF0FF3208F0CFFFDFF8349310201323CC4CCC4A009094
:20029C004946019408F0C4FF202018F035FF0146C848816069B108F1070016F0E7FAC54A9F
:2002BC00C54910201123009014320191494608F0AFFFDFF88CA39AF800004FF0040910FB24
:2002DC0009F080B218F018FFDFF878B33C4601460029CBF80C1000F0978008F1070016F0D8
:2002FC00C5FA9AF8000010FB09F080B218F004FF5F4601460029396100F0868008F10700AB
:20031C0016F0B4FA9AF80000494610FB01F080B218F0F2FE01467961002975D002E0C0464F
:20033C000C3B002062E0C046576F726B207769746800C046536574204175746F436F6E6EFA
:20035C006563740044697361626C650047726F757020410047726F75702042005365742068
:20037C00436F6E6E2050485920507265666572656E63650031204D62707300C032204D62FF
:20039C00707300C03120262032204D62707300C0436F64656400C0463120262032204D62E6
:2003BC0070732C202620436F646564004175746F20504859206368616E6765004156010005
:2003DC00F98B00009DBD00003C1E0020BC16002070270020616B01004C1F0020792D010001
:2003FC001959010095790100095F010008F1070016F03CFA10200090CF4901916A4918374E
:20041C000D233A4608F004FF0DF116003146022211F00BF930460DF1160113F029F9032787
:20043C004FF0020A8DF81D7001208DF81CA04B468DF81B00C1498DF81E300DF10E0730464A
:20045C000A6809793A600DF11B023971012112F01BFD012007AA014612F016FD01210DF1A3
:20047C001D02504612F010FD032001210DF11E0212F00AFD484605210DF10E0212F004FD6B
:20049C004C4904F114004860AD4904F14002102008F0BEFE207816F0D5FEAA49024610200D
:2004BC0008F0B6FE207816F0CDFEA7490246102008F0AEFEA5491020FB2240F6480308F04B
:2004DC00A7FEA34910209BA208F0A2FEA14F07F1180007F10C010EF015FC9F49B86018F04E
:2004FC00E7FCDFF87892B8684FF4E0214A46521E16F08AF8B8684FF4E0214A4616F084F8BA
:20051C00DFF82893B8684FF0C0514A46521E16F07BF8B8684FF0C0514A4616F075F8B146DA
:20053C0007F12400C8223346CB49CDF8009014F075FCCA48786008F1050012F005F82078C3
:20055C0016F080FEC84E034650460422C449009006F110000190102008F05AFE04F1EC0743
:20057C00C0223846494611F060F804F1EC0B08F107060820401E27F8186BFBD14FF0FF30C3
:20059C00494613F047F8A06049464FF0FF32ADA02860284617F022F9A068DFF8C882B8B178
:2005BC00AF68AFB10AE0C0461173010054BA01008C150020D819002084BA0100414607275E
:2005DC000861C94E0F702846CE6016F0C5F8A068454629784A46C8A316F093FFE068002171
:2005FC004FF040424FF0FF3319F072FA00280990F4D0002002900DF11A0102AA03A816F08B
:20061C0023FB002840F08A81BDF80C00102840F0818120789DF81A10884240F07B8102992A
:20063C0008884FF6FF72824200F074810E463078913821D01F3807D0203800F0688169E150
:20065C00C10F0020001D00203379A0682A787E2B04D07F2B0AD10989C4A301E0317AC7A30A
:20067C000091521CD1B2002216F04BFF317906F1080019F029FA4DE170780E3841D0401ECA
:20069C0026D0401E00F032812E3840F04381B0780C2840F03F81F778A068297887B9F279DE
:2006BC00012A08D0022A08BFC5A205D0032A0CBFC4A2C6A200E0CBA20092891CCAA301E054
:2006DC00491CCEA3C9B2002216F01BFF0C2014E0B08842F23201814240F01C81B278A068EA
:2006FC0029781A2A1ABF0092C9A3D1A3491C0022C9B216F006FF42F23200314610F098FC30
:20071C0008E1B168B788087841F20542BF1A27D0A7F62B47002F40F0FD80002840F0FA80F5
:20073C00C878009008790190A1682878D4A38C46C01DD2E000C046C0F8B801004DBB0100BA
:20075C00497A0100D96C02102D6D02100D520210397F01102C220020F56301000E00058022
:20077C00B168491C91F902A0002840F0D3804A78087800EB022017F077FDD4F808C095F81D
:20079C0000E00746082F80F2A580BAF17F0F00F09480F90001EB07110BEB0106727C531CAE
:2007BC0088187374584480F80CA0727C052092FBF0F343430BEB0100D21A0C300021052365
:2007DC00727410F9012B5B1E0A4411B2F9D1052091FBF0F040B2B074F37C002B6DD110F10E
:2007FC001F0F4FF0000904DD337D022B18BF002B3CD196F9120010F11E0F07DA10F1290FB1
:20081C0004DD337D012B18BF002B17D110F1330F04DD10F1280F50DA337D4BB910F1320F99
:20083C004BDA04224FF0020921E0C0460E00001004224FF001094FF006081AE04FF00108E4
:20085C00424616E053696D706C65205065726970686572616C00C04645880100C57C010052
:20087C008DA50000202500204C1F002002224FF00208737D984502D1B07D022801DB98451D
:20089C001BD0308811464B4615F05CFC0120F074707D80451CBF0020B075B9F1000F06D06E
:2008BC00B9F1010F14BF4FF002084FF0060886F81580D4F808C095F800E0F800CDF800A088
:2008DC0000EB0710584490F91200C3A301900EF1050002E00EF10100C7A3C1B20022604641
:2008FC0016F00FFE16E0C046E9D200000820002107F024FE0EE0C0463D3D3D3D3D3D3D3DD4
:20091C003D3D3D3D3D3D3D3D3D3D3D3D00C0084601F096FE029808B118F0B0FB0998C00FD6
:20093C00FFF45CAE206919F0CBF800287FF456AE2069064619F0C0F8864208BF002602D08D
:20095C00866815F0E1FF002EECD03078401E082800F28E81DFE810F06701FE00D800B400CE
:20097C009E0084008A0184011A00C0464D54552053697A653A20256400C046C046432056B0
:20099C00696F6C617465643A2025640070684788384617F069FCA1682A7808280DDAC10062
:2009BC0001EB00115944C87D012840F06181B9493A46102008F02CFC5AE1571C8EA39BE0D5
:2009DC00324D00C0434F44454400C046556E6578706563746564205048592056616C756514
:2009FC0000C046C0314D00C0504859205570646174656420746F20257300C046504859202D
:200A1C004368616E6765206661696C75726500C05048592055706461746520537461747507
:200A3C0073204576656E743A203078257800C046504859204368616E6765206661696C75D8
:200A5C0072652C207065657220646F6573206E6F7420737570706F7274207468697300C09A
:200A7C0002200DF11F0114F0FFFD002840F00081032001210DF11F0212F006FAF8E0C046FD
:200A9C00525850683A2025642C20545850683A20256400C07768787A48B17F4800902978E0
:200ABC00A06800227DA3C91CC9B216F02AFD7A480090BA49FA880023102008F0A9FBD7E0C6
:200ADC0072681079A1682F781278DAB1521E10D0521E08D0521E40F0CB8000280EBF73A344
:200AFC00009077A307E0002808BF7BA303D07FA305E018B983A3FF1C8846ABE085A3FF1CB4
:200B1C008846A6E088A3F6E77768A26828783968491E0CD0491E08D00E3912D179680B7823
:200B3C000093498884A3019105E08CA300E090A3796809780091001DC1B21046002216F054
:200B5C00E0FC3868B0F1004F00F09280786815F0DBFE8DE070680078010923D24009C0F098
:200B7C0087800E2017F09CFE002840F081806A68A8689168814213D0B0F1FF3F78D0116908
:200B9C0051F830702FB901EBC001486815F0E4FD6EE0116901EBC0014968C0B2884767E077
:200BBC00D068F3E70D2017F07BFE002860D16968A8688968814208D0B0F1FF3F09D0401C80
:200BDC0015F0AEFDB0F1FF3F02D1002015F0A8FDA8600BF043FD4BE0525353493A2564203B
:200BFC0064426D2C2041564720525353493A25642064426D00C046C0436F6E6E656374694C
:200C1C006F6E2068616E646C65206973206E6F7420696E2074686520636F6E6E4C69737420
:200C3C002021212100C070682F78D4F8088000787F1C38B1801E1BD1022008A914F014FD14
:200C5C0050A304E0002008A914F00EFD50A39DF820000090F9B24046002216F052FC07E0FB
:200C7C007068B0F801000CF03BFF05E013F0E2F8706808B115F048FE304615F045FE51E60E
:200C9C00491C0729FFF45DAA18F08CFA0BB0BDE8F08FC0460D2B021040E201005061737332
:200CBC00636F64653A20256400C046C0426F6E642073617665207375636365737300C04663
:200CDC00426F6E642073617665206661696C65643A20256400C046C0456E6372797074692A
:200CFC006F6E207375636365737300C0456E6372797074696F6E206661696C65643A2025F3
:200D1C006400C04650616972696E6720737563636573730050616972696E67206661696CE4
:200D3C003A20256400C046C050616972696E67207374617274656400416476205365742086
:200D5C0025642064697361626C656420616674657220636F6E6E20256400C04641647620AC
:200D7C005365742025642044697361626C6564004164762053657420256420456E61626C38
:200D9C00656400C04368617220333A20256400C04368617220313A20256400C0956B0100C7
:200DBC0038B586B004468DF805104FF6FF720120ADF80220090ADFF8545AADF80000022310
:200DDC008DF806108DF8043069462A78204618F06FFE162803D12978204618F065FE07B03C
:200DFC0030BD3EB504000D461ED0DFF8240A0068224618F055FEFF2815D0002000900023A3
:200E1C0001AA294620460DF0B9FC60B99DF8040000F075F9C00606D59DF8040000F06FF9E2
:200E3C0010F0040000D001203EBDFEB5164615244FF6FF7290420D4615D100208DF80400F4
:200E5C00DFF8C8799DF80400F97988421AD23246294600F03AF800B100249DF80400401CCA
:200E7C008DF80400EEE718F017FE50B100F0A2FB40B99DF804003246294600F026F80024A2
:200E9C0000E014242046FEBD7CB50D46044606214C43164600F080F8A8B900F078F890B9AB
:200EBC009DF80700002E14BF054320EA0505E9B2814206D08DF807506A460821A0B216F0DC
:200EDC0051FC012076BD002076BD2DE9FC410646344606235C438846154600F05DF800288B
:200EFC0052D100F054F800284ED1DFF82079387A800017F0B9FE040002D100F02BFA43E0C1
:200F1C00397AE03689062246090EB0B216F002FC002835D1204600F058F85FEA08000ED174
:200F3C003A7A9206120E0021204617F0ADF838BB3A7A92000021204617F00CFD16E02146C9
:200F5C0000F030F858B9280004D02146002000F029F810B900F0DDFB16E0A0F80080817820
:200F7C00A9420DD085700DB900210180204600F02CF8397A89062246090EB0B216F0F2FBA0
:200F9C0000F0C7FB012000E00020BDE8F6810622FF21684617F078B820346A460821A0B29A
:200FBC0016F0B8BB70B5DFF864381D7A002200E0521CD4B2AC4206D231F824608642F7D174
:200FDC0001EB840070BD002070BD10B50021DFF83C280AE030F82130DB4320F8213000EB15
:200FFC008103491C9C78E4439C70137A9942F1DB10BD2DE9FE4FDFF814480646207A0F46D3
:20101C0091469B46800017F02FFE5FEA000803D100F0A0F90A206CE00C9D0297B2460627BD
:20103C0017FB0AF7029A07F12000082100F064F88DF80400304600F09FF8227A9200FF2184
:20105C00404617F087FC9DF804000090E036217A89064246090EB0B216F084FB009E02993C
:20107C000643206A082200EBCA0017F069FCBDB10299887900232A4600F0010018F008FD9B
:20109C0000281CBF9DF93C00002803D0DFF884170120087007F123002A4600F02CF8064371
:2010BC005FEA090205D007F121001C2100F024F806435FEA0B0205D007F122001C2100F0CE
:2010DC001BF806430D9A62B107F1240000F013F8054625370EAA0421B8B216F043FB05434D
:2010FC002E43207D08B100F09AFA404617F0C4FDF0B2BDE8FE8F102180B216F033BBE0B57B
:20111C000623584320306A46082180B216F002FB10B99DF807000EBD00200EBDDFF8EC06AD
:20113C00007808210CF04ABB38B50025DFF8DC4619E0206A062313FB05F300EBC50220332F
:20115C00082198B216F0E6FA58B1206A0622FF2100EBC50017F0FEFB206A00EBC501002232
:20117C00CA716D1CEDB2E1798D42E2DB207D10B1BDE8314053E231BDF8B5DFF89016DFF872
:20119C009836C9791E680C460A4600E02A46D5B23DB1551ED2B2324412F8017C8742F5D1B3
:2011BC002C46E4B220464D1E07E01718165C7F7817541A680244401C5670A8421A68F4DB2B
:2011DC00AC4204DABDE8F840052016F0CBBAF1BD70B50024DFF8345600E0641CE879E3B2EC
:2011FC0083420BD22B6AE6B20622FF2103EBC60016F04AFF0028F0D0E0B270BDDFF81C26F9
:20121C00117819B1DFF810060168087870BD38B500200024DFF8F45503E0E0B200F008F8A6
:20123C00641CEA79E1B2914201D20100F5D032BD2DE9F84F83465D46062313FB05F58EB089
:20125C0005F1200701AA0821B8B216F063FA002873D10622FF2101A816F016FF00286CD1D7
:20127C00DFF8A865307A800017F0FEFC5FEA000903D100F06FF80A2061E01C22FF2103A852
:20129C0017F068FB327A9200FF21484617F062FB05F123040AAA1021A0B216F03BFA60B9D0
:2012BC001022FF210AA816F0EFFE30B99DF80A0001A900F0010018F0E7FB082200F042F8BA
:2012DC0001AA0821B8B216F04DFA8DF8000003AA05F1210000F03AF8074605F1220003AAEA
:2012FC0000F034F8804603AA1021A0B216F03AFA044605F1240003AA102100F028F882466C
:20131C00253503AA0421A8B248EA070716F02AFA2743317A9DF800504AEA070707438906AC
:20133C000BF1E0034A46090E98B216F01BFA0743484617F0A1FC3D4300E0002528460FB078
:20135C00BDE8F08FFF2101A817F004BB1C2180B216F008BA042016F03BB82DE9F84187B0E4
:20137C00FF208DF80000DFF8A454E87917F07CFC040003D1FFF7EEFF0A2030E01022FF21B7
:20139C0003A817F0E7FAEA79FF21204617F0E2FA0622FFF7D7FF03AA1021022016F0E2F9FD
:2013BC00064603AA1021032016F0DCF906436A460121042016F0D6F90746E9792246052099
:2013DC0016F0D0F9054601AA0621062016F0CAF9804600F09EF93E432E4348EA060008B0E7
:2013FC00BDE8F081DFF824144088097816F01AB9F0B5A9B006460D46144618F04DFB08B982
:20141C001420ACE0A4220021684617F0A3FAADF800600DF12607DFF8F463F078B17B8DF840
:20143C000400F07B8DF8A000279861F30000B17B27908A074CBF0222002220F002001043BF
:20145C002790CA064CBF4FF48072002220F48070104327908A064CBF4FF40072002220F4F3
:20147C000070104327904A064CBF4FF48062002220F480601043279049074CBF0421002195
:20149C0020F0040008432790307C02280CBF01200020787418F0F4FA412807DB307C00B1AE
:2014BC0008209DF8991008438DF89900B07CB8B10121B974202206F18C010DF1390017F059
:2014DC003FFA202206F1AC010DF1590017F038FA202206F1CC010DF1790017F031FA00E0B2
:2014FC00B874707B8DF8050090B1DFF83473102207F110010DF1060017F022FA9DF89900E0
:20151C00082805D1102239460DF1160017F018FA307B8DF8260030B11022DFF808130DF172
:20153C00270017F00DFA307948B1022D18BF032D03D1279840F002002790012100E00021E3
:20155C009DF899000143B0788DF8991000B1042001438DF899106846214618F08DFA29B0E3
:20157C00F0BD2DE9FC41154615244FF6FF72904288460DD10027A54EF179F8B2884216D2A7
:20159C002A464146FFF780FC00B100247F1CF3E718F082FA50B100F00DF840B99DF8040070
:2015BC002A464146FFF770FC002400E014242046BDE8F681002100910023417901AA01F0CD
:2015DC000101801D0DF0DAB870B504460D4606204543082B88B0164603D1300758BF223511
:2015FC0000D521351C220021FFF7ADFE01AA1C21A8B216F08FF880B99DF81E00C01F0A28D8
:20161C000BD29DF830000090F20801AB02F0010206F00101204618F02BFA08B070BD38B584
:20163C0018F022FA0024794D0FE0286A0622FF2100EBC40016F028FD28B9286A00EBC401BA
:20165C00002018F00DFA641CE4B2E8798442ECDB31BD3EB50C46002501460095002301AA39
:20167C0020460DF08BF838B99DF80400FFF747FDC00601D401203EBD00203EBD2DE9F0418B
:20169C00694F3C6806468846154603E02089B04224D02468002CF9D10C2017F0E5FA040053
:2016BC0019D0268184F80A8000202060E07245B10821284616F002FE606018B900F029F851
:2016DC000AE06060396811B93C6004E0014608680028FBD10C600CB9152018E018F0BCF993
:2016FC0008B1002013E00120E0722A4641463046FFF77EFE04464548C06900281CBF436802
:20171C00002B03D000220021304698472046BDE8F081204617F0B0BA38B505464248046896
:20173C0003E02089A84204D02468002CF9D1012032BDE07A012807D100F05CF820B13348C6
:20175C00007804210CF03AF8E17A491CE1722846C9B200F002F8002032BD38B5022904464B
:20177C002A4D02D003290DD01EE042F6C921FFF717FB02001CBFE869002818D04368B3B186
:20179C0005210CE042F6A621FFF70AFB01001CBFE96900290BD04B684BB10246042120466D
:2017BC0001B0BDE830401847BDE8324000E031BD10B51D4A1468002101E0214624686CB149
:2017DC0023898342F9D1206800290CBF10600860606808B117F050FAFFF79BFF002010BD0F
:2017FC00024604201049096819B10B899342FAD1C87A70470C48006828B1006818B1C17A9F
:20181C000029FAD17047002070470000081C0020680F002050410020EC4000204F410020A2
:20183C00603E0020903E0020F04000202DE9F04385B0064600208946009090461C46B179E5
:20185C00002304AA30460CF099FF20B1FFF7C0FC8DF810001BE0D4B19DF810300620434378
:20187C0023336A46102198B215F054FF78B91022FF21684616F008FC48B9B079314600F0A7
:20189C00010018F001F910B1194901200870194F9DF81000F979884227D2012003900094E3
:2018BC0043460C980D990E9D019002914A469DF810003146FFF79DFB044655B1397A9DF898
:2018DC0010008906E0302A46090E80B215F04AFF0443200005D09DF81000FFF7A9FCFFF7C4
:2018FC0023FC204605B0BDE8F0831520FAE700BF50410020081C00202DE9F84F012015F02D
:20191C00B9F8012816D1DFF898663078002118F09FF8040004BF002015F05AFD00202072B8
:20193C00201D0DF025FE05F029FD050003D1812018F08AF830E301206871DFF86826DFF8C6
:20195C0068064178491C4170A879A0724020317811700CF043FD2860616D4A78206DD106B9
:20197C0020D5816C0A681179032908D0816C0868007903280CBF0120002015F029FD206DA4
:20199C00816C0A6890F86C0002F1080701281CBF002015F01DFD216D486F296800F5B060B8
:2019BC00C8604AE0C16E0A681179032908D0C16E0868007903280CBF0120002015F008FD31
:2019DC00206DC16E0A6890F8980002F1080701281CBF002015F0FCFC226DB5F87401D2F8FF
:2019FC00A0102A68DFF8C435DFF8C465D16097F82690B9F1030F1BD8DFE809F002050E11AE
:201A1C0001F5B06101E001F53471D16005F59A711888088718880EE001F5355101E001F6E0
:201A3C00B871D16005F59A7130880887308802E001F5B061D160A5F8740106222868DFF871
:201A5C007465C168DFF8708501F59071C160B91C3878C0F3801085F82E0105F5947016F00C
:201A7C006FFF042207F10E0105F1240016F068FF306895F8069000F10C03042207F10E0140
:201A9C0003EB491016F05CFF3068AB7900EB4313032207F1120103F1100016F051FF05F105
:201ABC002C09787D89F80200022207F1160105F1300016F045FF022207F1180105F132005D
:201ADC0016F03EFF022207F11A0105F1340016F037FFB9F808006884022207F11C0105F136
:201AFC00360016F02DFF99F80200B9F80A10400089F802000901B9F80400A9F80A10400087
:201B1C00A9F8040089B2B9F806004000A9F8060003046A8C521CDB0B5A438A4201D280B26C
:201B3C0030B998F8000080210BF048FE3B2133E105F12E01284617F083FF0520A8814FF015
:201B5C001C0A284617F078FF052207F11E0105F1610016F0F5FE97F82300400989F800004D
:201B7C0017F066FF688205F59A72618D401AD08005F1610197F82300DFF8407400F01F00B1
:201B9C0089F80F00284617F04FFF616D4A78206DD1064CBF816CC16E41F6210208680021D0
:201BBC000171A97938681AFB01F142520021AB791AFB03F303445980AA791AFB02F210444A
:201BDC004160616DDFF8F8034A78D1060DD5DFF8F4138A7851060AD5DFF8EC23138841F263
:201BFC000A418B4208BFDFF8E403C5F89C01D5F89C11284688473A68A97902F10E031AFB3E
:201C1C0001F15854AA7938681AFB02F202440020D0733968A87901F10E021AFB00F0115C5F
:201C3C0089F80D10606D4178CA061DD595F8960108B915F0CDFBA97938681AFB01F10144E2
:201C5C0095F89601421E0A74A87939681AFB00F00844002141743A68A97902F112001AFB9F
:201C7C0001F1002242522BE0A97938681AFB01F10144206D90F840200A74A87939681AFBBD
:201C9C0000F00844216D91F841204274206D3968AB79403001F112021AFB03F34188D152FF
:201CBC0005F5CB710078012200F0030082400A70226D92F84000800814BF01200220087198
:201CDC003968A879DFF808B301F1140231681AFB00F301EB4010D050A87939681AFB00F0C8
:201CFC000844BC498161DBF814000078C107DBF8141009784CBF1F200F208A07DBF81410F5
:201D1C00097848BF40F020004A07DBF81410097848BF40F040000A073168AA7901EB421381
:201D3C0048BF40F080001872A979306800EB41120B2050723168AA7901EB42100421A64A52
:201D5C0081721078012806D13168A87901EB40120121D17207E0DBF824003168AA7940783D
:201D7C0001EB4213D8723168A87901EB40121F2111763068AA7900EB421100204876A87905
:201D9C000CF070FAAA79316852018850AA7931685201885820B90721284615F057FCFBE049
:201DBC008E48AA79016801EB021017F039FEA87931688A4B01EB4012196801EB001050606F
:201DDC00A979306800EB41125168C9F83C10AA7952018158C9F84410042198F800000BF015
:201DFC00EDFC616D4A783868D10648BF02210AD4A9791AFB01F101440A7C02F00302022AB8
:201E1C0014BF04210621B9F8042095F806C04FF4C8738A18698AAA615143B1FBF3F35B1CA4
:201E3C006B611AFB0CFCD5F800E06044DEF80CC040F6C41101FB02C2D21AA2F5A862826070
:201E5C00AA7938681AFB02F283189A682B689A6000F10C03AA791AFB02F20C309B5C03F01E
:201E7C00EF038354A8793A681AFB00F002F10C030C321B5C03F07F031354A8793A681AFB4A
:201E9C0000F002F10C030C321B5C03F0F00343F002031354AB7938681AFB03F31844427B12
:201EBC0002F0F00242F001024273AA7938681AFB02F2024490682B6818613068AB7999F8D5
:201EDC0002C000F11402686940005B0111FB0C0000F5F660D05095F8960104280DD1306867
:201EFC00AA7900F114034FEA421C143053F80C20AB795B0102F56162C2503068AA7900F151
:201F1C0014034FEA421C53F80C20C5F83421AA7900EB4210C37C03F0F00343F00403C37478
:201F3C00DBF830003268AB79006802EB431CB9F8062042436423B2FBF3F35943A1F5966171
:201F5C00CCF81C103068A97900EB4110C27E02F0F00242F00402C276A97938682A681AFB82
:201F7C0001FA00EB0A01516028460E2117F054FD1B4907200870204614F030F819488178BF
:201F9C00880704D5AA790021204617F041FD28681549164A41618261BDE8F14F03F0D0B89B
:201FBC00D50F0020D70F0020780E00208E0F0020900F00209C0E0020C70F0020980E002053
:201FDC0081010210C00C00209A0F00204DE50110ECBB0100980C0020CC0F0020A40E002020
:201FFC00C80F0020200E00209DC10000020480802DE9F84F054688B0A978DFF83C6600277B
:20201C0010294FF0060A3CD8DFE811F0110012031203120312033C00CF001203120375022F
:20203C0015010001C70212034B028D020A036878002826D117F0E8FC044617F0E1FC054643
:20205C0017F0DAFC8DF8000022461021022015F089FB2A461021032015F084FB6A460121A4
:20207C00042015F07FFB9DF80000012818BF032807D1012017F0BCFC02460621062015F08F
:20209C0071FBD5E268780028FBD195F80CB06C8900900023E97801AA01F00101281D0CF0FC
:2020BC006DFB00284FF0010875D19DF80400FFF726F88146BBF1080F307A08BFB8468000C0
:2020DC0016F0D2FD050003D1042015F081F9AFE270789DF8041002280CBF012000200090AB
:2020FC005B464A462046FFF76FFA1422002102A816F030FC9DF804001AFB00F0243002AAFD
:20211C00102180B215F006FBB0B91022FF2102A815F0BAFF80B99DF804001AFB00FA0AF13B
:20213C00250306AA042198B215F0F4FA02AA09F00101204617F058FC317A9DF8040089060E
:20215C00E0302A46090E80B215F0E4FA98B92846FEF73BFFBA4609E005EB8000018819B11D
:20217C008278204615F002FE0AF1010A317A5FFA8AF08842F0D3B07A30B95FEA897003D5A0
:20219C003178204615F04EFA9DF80400FEF7F4FF284616F071FD7078022805D1B8F1000FC4
:2021BC0002D0204611F078F942E2A888FFF700FB17F016FC0028F7D1707D012808D1FFF726
:2021DC0026F8706A77750422002116F0C3FB17E0B07D012803D1FFF7C0F8B77510E00024E5
:2021FC000AE0706AE5B2415D012904D1E0B2FFF71FF8716A4F55641CE0B2F1798842F0D3A4
:20221C00502015F0B3FEFEF78FFF11E217F024FC00280CD0F06900281CBF0468002C07D010
:20223C00286900906B7B2A7B6989E81CA047FEE168890121F1E168780024002840F01A813E
:20225C00A879C10740F116810822002105A816F081FBA88817F020FC040076D06F694FB3C0
:20227C000622002107F1110015F00EFF68B306220021384615F008FFD0B9387C00F00108BA
:20229C004FF0000909F1010987F811900020009000230022414607F111000CF06FFA0028A4
:2022BC005FFA89F002D10028ECD101E000280CD1002068610622607900F001008DF81A0018
:2022DC00A11D05A816F03CFB1FE06F69EFB1387C00F001008DF81A00062207F1110105A8A0
:2022FC0016F02EFB6079012805D10622A11D04F10C0016F025FB062207F11101A01D16F0B9
:20231C001FFB387C40F002006071A879410720794CBF40F0020000F0FD002071A9790A07E0
:20233C0054BF00F0DF0040F020002071A9799DF81B00890801F0010108438DF81B00A9795B
:20235C000A074CBF0821002108E0FFF753FA0028ECD0307804210BF031FAE7E708438DF85B
:20237C001B000020009000239DF81A1004AA05A80CF004FA20B1FEF72BFF8DF810001AE0C0
:20239C006869C0B19DF810001AFB00FA0AF123036A46102198B215F0BDF960B91022FF21B9
:2023BC00684615F071FE30B99DF81A0005A900F0010017F069FB9DF81000F179884255D23D
:2023DC00E8680021039105A90269019002924FF6FF78686900902B69AA689DF81000FEF741
:2023FC0008FE0446AF88B06A48B906F1180100910223924A4146012017F0EEFAB062B16AB9
:20241C0019B3FF200390022200230292019307A800900DF11203328B384605F0D5FA68B941
:20243C009DF812009DF8131000EB012290B228B1B06A418992B23846FEF7F7FC328BB06A93
:20245C000023414617F0C4FAB062200005D09DF81000FEF7EDFEFEF767FE200007D1707A29
:20247C000028A88804D1FFF757F903E01524A888FFF79EF9F06900281CBF4368002B0FD0E3
:20249C006A78A888012198476878002808D1A879C10705D5F369A88822465C680321A047A6
:2024BC00BEE0687806281BD1A88817F0F5FAB8B1F17C012904D013D3032907D00CD30FE0B7
:2024DC004179A8880022FFF7D9F809E00022002140F2094003F0B8FDA888052117F074FAF3
:2024FC00F06900281CBF4368002B03D06A78A888022198479BE000970023E97801AA01F075
:20251C000101281D0CF03AF90028F3D19DF804001AFB00FA0AF1250305F10C02042198B2FF
:20253C0015F020F983E0F06900281CBF4368002B03D0A888002200219847707810B9A888C6
:20255C0005216AE0A88817F0A7FA040070D0A87AC10712D5009700236179002201F0010159
:20257C00A01D0CF00BF900281EBF60790028012803D0E868C0F3402028B1307C022807D196
:20259C00A87A010704D4A888032117F019FA4FE06179A88805F1080227E02F7BAD88284622
:2025BC0017F07AFA040042D017F056FA00283ED100900023617901AA01F00101A01D0CF0FC
:2025DC00DDF828BB9DF80400FEF799FD07F00C07042F11D0082F0BD00C2F0FD100F00901BE
:2025FC0009290BD0617900222846FFF747F81EE010F0090F02D1F5E7C107F3D50122009209
:20261C00A37C9DF8041002462846FEF7DDFF0EE070780028E6D10521284617F0D1F906E04F
:20263C00FFF7E8F818B1307804210BF0C7F80127384609B0BDE8F08F081C00207EB501005D
:20265C002DE9F04F0646CA48CA4C82460178A268B078ADF1240D002800F08E81C34F401FBB
:20267C00B5A3BCA500F0C180401E4ED0401E1ED00A3840F04F82B088B77BADF80800708939
:20269C008DF8127060B9ADF80E00B089ADF81000F188ADF80A103789ADF80C70012000E043
:2026BC000020B0498DF8130002AA0D4621E1AE49B288102002AB06F0ABFD9AF80070A56891
:2026DC00F078BF1C30B90DF10A0011F05BFF8BA3009007E00DF10A0011F054FFB178009194
:2026FC008CA30190F9B22846002214F00AFF04F1380015F0A6FA041C00F0148220890BF09A
:20271C00EFF9204614F000F90CE2394610201A4606F07EFD5FFA80F89AF80010A068002247
:20273C0086A3491CC9B214F0ECFECDF800809AF80010A06800222B46891CC9B214F0E1FE01
:20275C00B088814615F090FD08282CD0C50005EB00152D19EC35A868071C0ED016F02EFD2D
:20277C0010B1384616F01CFD384617F025F9384614F0CAF8686814F0C7F804F138000768C9
:20279C004D4657B106463889854203D13046394615F084F83F68002FF5D1284613F0F0FC6B
:2027BC0028460FF0D1FEB8F1000F08D104F1540016F0F6FCC3480221012215F00FF800256D
:2027DC000095C14EA27810202B46314606F020FD0095E27810202B46314606F019FDA068D9
:2027FC009AF800300246DB1C97E1394610201A4606F00EFD5FFA80FBCDF800B09AF8001049
:20281C00A06800222B46891CC9B214F07AFE7078002851D1B6F80A9004F1EC0808200025B5
:20283C004FF6FF72A8F1180737F8181F8A4204D0401E05F10105F7D127E0A7F8009003208D
:20285C0016F05AFC7860D0B1082101707868A0F80190242016F050FCB86018B9786814F0A1
:20287C0053F80CE0E80000EB0510404441680091B949806842F21072012312F0CFFAE800E8
:20289C00012100EB0510404401759AF80050A768301D11F077FE6D1C00900022A3A3E9B230
:2028BC00384614F02EFE87480121022214F096FF04F1540016F072FCBBF1080F12DA60785C
:2028DC0080B900260096804DA27810203346294606F09EFC33460093E2781020294606F05D
:2028FC0097FC1FE19D4DE2781020294606F090FCA2782946102006F08BFC13E14C696E6B0C
:20291C0020506172616D20557064617465643A20257300C04C696E6B20506172616D2055DD
:20293C007064617465204661696C656420307825783A20257300C04600C046C0446576695D
:20295C00636520446973636F6E6E65637465642100C046C04E756D20436F6E6E733A2025E9
:20297C006400C046D9570110F9DC01109959010020250020BC1600207078002840F0D280CE
:20299C007749102006F044FC764904F122031020002206F03DFCF5798DF8095000278DF8A3
:2029BC000C70337A8DF80B70B17A8DF80A30B0798DF80E10F27A8DF80800757A8DF80F2080
:2029DC0002AB69498DF80D501A680A60586848609AF80010A06859A33A46491CC9B214F03C
:2029FC0090FDA01CDFF88891634D604900904A46102005F16C0306F00BFCC0B208B115F047
:202A1C00B6FE192005F1530300905A490193A27810203B4606F0FCFBC0B208B115F0A7FE0D
:202A3C004FF0150805F12900CDF8008051490190A2780123102006F0EBFBC0B208B115F015
:202A5C0096FEA2784D491020922306F0E1FB0097DFF874B0A27810203B46594606F0D8FB9A
:202A7C00C0B208B115F083FEE01C404900904A4605F18803102006F0CBFBC0B208B115F047
:202A9C0076FECDF800803E3501953A49E27810203B4606F0BDFBC0B208B115F068FEE2782C
:202ABC0036491020922306F0B3FBB846CDF80080E278102059463B4606F0AAFBC0B238B10F
:202ADC0004E0C0460C3B0020ED74011015F04FFE9AF80050A768B01D11F054FDAD1D1DA12D
:202AFC000091424618A30190E9B2384614F009FD11F0A0F9224840F6B832012316490090FB
:202B1C0004F1780012F08AF91E480221424614F065FE07E04B1C891CCDB21046D9B22A466C
:202B3C0016F060F909B0BDE8F08FC046436F6E6E656374656420746F20257300496E697455
:202B5C0069616C697A656400257320416464723A20257300494400C0616B010065020210BF
:202B7C00BD5102108D450210F714002099010110DF7801004DC900004C1F00201DEF011049
:202B9C00712700200C3B00202DE9FE4F04460020009000250CB914F01BFC04F1500841F614
:202BBC002300D8F8007038807D8002223A737A73694620460AF030FF08B9072051E2009931
:202BDC0001B1B860B8682061DFF89C04017884F8B810D8F80400407A12F09CFC2530207627
:202BFC00207EB873FD73D8F80400017D022904BF002014F0EDFBD8F80400007D012802D1E7
:202C1C000020002104E083280CBF0620022020213874797404F12406DFF850A4DAF83C00E3
:202C3C0041690868717901EB41010844B0F801207A82D8F80400417848060AD5607DC106D7
:202C5C0004D5E07F40F04000E07702E040F04000607507F15C0904F1300089F80050B17EB0
:202C7C00890001F0040189F80010B866607DC10656D5D8F8042051788A060CD500F0FE001F
:202C9C006075D8F80400417811F0030F03D1E07F00F0FE00E077607D16F08AFEA075421C4D
:202CBC00387CC0F38001002392B200F0030016F07BFEA0831E20A28B02F59B7393FBF0F036
:202CDC001E2101FB1030C0B208B1C0F11E00821802F59B7262831E20A28B02F5967293B231
:202CFC0093FBF0F001FB1030A283C0B208B1C0F11E008018A08380B2E27D618B521E5043B4
:202D1C004018608307F13005608BB43080003866062089F80300E17F41F00801E17720E0A6
:202D3C0040F001006075D8F804104A78510744BF40F002006075607D16F03AFEA075002316
:202D5C00401C82B2387CC0F3800100F0030016F02BFEA083A08B00F59670A0833D6689F82D
:202D7C000350A17D207D61F3050007F18801207508700322607D48708A70B07E800000F0F0
:202D9C00040040F003008870F27ED20002F00802104388700020C870C7F89000B08BC0F3CA
:202DBC000B00B083D8F80410CA7D40EA0230B0830022617D01F0FE0120460AF069F80197B6
:202DDC0000271EE01C2010FB07F004EB000B01991C220BF1640015F0B3FD0BF16C000521FF
:202DFC0001717F1CA28B92000260FFB2DAF83C104A691168737903EB43031944B1F8012047
:202E1C004281E07D401E8742DCDB019F20460EF049F8E07D012809D013D3032808D03EBF0E
:202E3C0004F164007860C8F818500AE07D6008E004F16400786004F18001C8F81810C8F81F
:202E5C00345041F6240038860021798607F13C05B868618B00EB8100B86302218220287070
:202E7C006970002194F82100E97000F03F00A870D8F80400807D012818BF022803D100F030
:202E9C007F00401E04E083280CBF062002202021287169714FF0000BDAF83C004169086871
:202EBC00727902EB42021044B0F80110E980C7F86CB0D8F80400417811F0030F20D016F0F3
:202EDC006FFDF866DAF818000078C107DAF8181009784CBF1F200F208A07DAF818100978E2
:202EFC0048BF40F020004A07DAF81810097848BF40F040000A0748BF40F0800089F81400BF
:202F1C0089F815B0D8F80410594A897C01F0030189F81510B07E800000F00400014389F8C1
:202F3C001510F07EC00000F00800014341F0100189F81510107838B199F8140000F0FE00FA
:202F5C0041F0400189F8140089F81510E07F16F02FFD84F82000204616F01EFDE07FC106CE
:202F7C0036D5D8F8040094F820204178521C88074EBFD21EF07F12182879C0F38001002346
:202F9C00D2B200F0030016F00FFD30801E22308800F59670C0F11E0190FBF2F21E2000FB71
:202FBC0002113171D8F804104878810731884CBF00204FF49B70401830807080B86B31880E
:202FDC0032795218A63200EB82007867022002E0C7F874B0002089F8170004F13000C7F819
:202FFC00800007F18400D8F804104A78510707D504F13802026099F8150040F0200007E071
:20301C001C490A685168016099F8150000F0DF0089F81500A17F94F8200060F30501A1775B
:20303C0040F60B002882A5F812B0DAF83800008880007865DAF83800008800B10720287732
:20305C000220687794F84510E983D8F804004178880744BF0121E983009808B109F0C6FD4C
:20307C000020BDE8FE8F00BF46410020ECBB0100880E00206C0F00202DE9FC47D44C0F46B5
:20309C000546F80B80F006826078DFF85883B90F80F0AA81B90880F09D81F90A80F002819C
:2030BC00390B80F0CC80380907D2F80FC0F0288227F080470FF012FA22E216F015F88146B2
:2030DC0014F014FF002800F0B480082015F0FCFE002840F0AE80802015F0F6FE002840F0D3
:2030FC00A88068460CF0F0FD012803D10098002800F09F8094F84102002840F09A800025C3
:20311C000126E8B215F012FC48B1837A3BB1867290F9090006FA00F0C0B213F0DFFC6D1C8A
:20313C00032DEED3032084F8200004F5CC7015F0D5FF484616F02CFCD34800252A460168E0
:20315C00056050F8081CD14940F8085C04F15C0014F0DCFD40460068006B8047A168401A1B
:20317C00010BA06AC1F1FF3282422CBF08444FF0FF30A06294F82C0020B12069A16AB1EB16
:20319C00C02F25D914F0C2FE294600B13146081C1BD0BF4840F6090101804580417B06F07D
:2031BC000F0221F00F010A434273017B05F00F0321F00F0143EA010202732946416015F061
:2031DC003BFD418811F4406FFBD084F82C60A56211F0B8FECE4829460560022014F002FC7F
:2031FC00022013F083FE11200AF060FE207818B96068483015F0BCFFC648007810B90E209E
:20321C000AF054FE94F82D0020B184F82D50052013F06CFEC048606284F82050B4F9B0001E
:20323C00B4F9B210884214BF022007200DF07CFE02E0484616F0ACFB27F008073AE720B171
:20325C00042013F053FE00206070656813F0F8F938B12846ED696FF4807100224FF0007354
:20327C00A847E06858B140460068006B8047E2686168801AC860000BC8600026E660A7496E
:20329C0004F15C00002214F041FD0221D4F89C0084F8201018B104F1DC0015F07BFF27F4F2
:2032BC00006707E715F020FF064614F01FFED4F894100028894600F08480002900F0818097
:2032DC009749042504F15C00002284F8205014F01DFD304616F05CFB04F5CC7015F0FEFE43
:2032FC0040460068006B8047E0604FF0010884F80180284613F012FED9F810006060D9F81A
:20331C001000416AC90803D3036A294600229847404610F091F8606880F8158060680BF0AB
:20333C00BBF86568D5F808A040F60A02D01F564600F1010C00E01E46736833B119888A4241
:20335C0003D0884218BF8C45F5D100217160727B08F00F0322F00F0213437373D9F80C2001
:20337C001288904224D06046904221D02B8E03B3696305F13002518095F83C0001F00F0368
:20339C0020F00F00034385F83C3095F83D0008F00F0320F00F00034385F83D307260707BE3
:2033BC0001F00F0520F00F0045EA0001717300E0E160504615F040FC5146404614F012FB93
:2033DC0002E0304616F0E4FA27F4806798E0C046E00F002006F086FDD4F89C0008B927F04D
:2033FC0002078DE08C0100104E4A116841F08001116020B1042013F079FD0020607015F007
:20341C0073FE8246D8F85400016804208847D0B1287DC0B1A068B0B18146D8F800002E69A9
:20343C00006B8047A0EB09002861000B2861B04202D280194008286140F6C41181422CBFA4
:20345C00B0F5967F2961504616F0A2FA13F0F8F880B1EE6928466FF4807100224FF00073C3
:20347C00B047D4F89400002808BF47F0020701D00FF034F82846AD6900214FF080630A4697
:20349C00A84727F000573BE0141004406D3901002440002015F028FED4F8AC6066B306F1F2
:2034BC00280106C90A234FF0E0450B40154008BF002B21D106F1280191E8000306F1280523
:2034DC0095E8060006F1280322EA090221EA080183E8060016F05CFAB16879B1B9F1000F37
:2034FC0008BFB8F1000F09D03069B6F93010B5684B464246A84701E016F04AFA27F480479E
:20351C0027B104F1DC00394615F044FEBDE8FC87000004603EBA01005DC8000099BC000021
:20353C00E97E0100CC2108402DE9F84FDFF85854A9780024FF2904BF002013F049FFA87837
:20355C0015F0A4F9054605F1680605F5C9773168086805F1900808B1EC8311E0B07B0028C1
:20357C0004BFB07E00280BD198F80010002904BF3878002804D1287F012804BF688CE8830F
:20359C002989E88B4118491C6981284616F0FCF901281EBFDFF8F4030178012903D12989DC
:2035BC00EC83491C69814FF6FF79B07E01280DD1B28B6989288916F0E3F938B129896889F1
:2035DC004A1C93B298422FD0B08B23E098F8000001280FD1B8F802206989288916F0D0F930
:2035FC0040B1298968894A1C93B298421CD0B8F802000FE03878012816D17A8869892889A4
:20361C0016F0BEF980B1298968894A1C93B298420AD0788892B2904206D04844688180B20B
:20363C0016F0AAF94844E883387801280FD128897988401C80B2884209DB7C793C71022063
:20365C0038702346A9792246002009F0EBFF05F59A71087920B128890021401CE9836881D6
:20367C00B07E012813D12989B08B4B1C9BB298420DD1688116F080F9804605F12E0081883F
:20369C00308C01FB080828460DF0D4FE03E005F12E01B1F80480EA8BDFF8F492501C00FB9B
:2036BC0008F040F6C41808FB00F100912B68D3F80CE07144D960B74B196809788909032965
:2036DC0040F0168199F80F30B349DB0740F10081B5F812C000230CFB00FC4FF4C87EBCFBC2
:2036FC00FEFC0CF1010C0B80A861C5F814C085F820204FF01C0BDFF8A4A2AB79DAF800004F
:20371C0000F108021BFB03F3D1582A68116100F10801AB79D26868691BFB03F3121ACA50DE
:20373C00DAF80000AB7900F108021BFB03F3D1582A68916000F10C02A9791BFB01F10C305F
:20375C00535C03F0F00343F002034354DAF80010AB798A1C1BFB03F30021D152387908B97B
:20377C0013F036FEDAF80000AA7900F1100138791BFB02F240088854A879DAF800101BFB07
:20379C0000F00844002141743879042814D1A879DAF800101BFB00F001F110021031135C7C
:2037BC003A7A43EA82030B54AA79DAF800001BFB02F2024420205074DAF80010A87901F1EA
:2037DC0012021BFB00F0002111527549A8790A6802F114034FEA401C143253F80C00AB797E
:2037FC00D5F814C05B0100EB4C00D050B07E02280DD10A68AE7902F11403760114329859D2
:20381C00AB7995F82E605B0118FB0600D05005F12E0299F80F00C30773D5DAF80000AE79E7
:20383C0000F108041BFB06F60830A359AC791BFB04F4A3F5A8630351DAF80000AE7900F115
:20385C0008041BFB06F6A3592C68A36000981B1A23610868AE7900F1140476011430A359F3
:20387C00AC79640103F5F6630351387904280BD10868AE7900F1140476011430A359AC79C8
:20389C00640103F5616303510868AC7900F1140364011859C5F83401424B186B0C68AE7987
:2038BC009288006804EB461742436424B2FBF4F408FB04F0A0F59660F8613B480278012A79
:2038DC0048D10868A97900EB41120120D07248E00B885B1C1FFA83FCBCF1010F11BFB5F87C
:2038FC0012C005F59A7EBEF806C00CF2DC5CF2E6698A41434FF4C873B1FBF3FC0CF1010CA4
:20391C00F2E6042C0BD10868AE7900F1140476011430A359AC79640103F561630351387905
:20393C000B68AE7904280CBF4FF4AA504FF4E66003F114047601A359181A938808FB03F34F
:20395C00A3F516739842A7D30821284613F07EFE012016E0586A0968AA79407801EB42135A
:20397C00D872A879DAF800102A681BFB00FB01EB0B00506007210D48017028460EF0DCFA64
:20399C000020BDE8F28F00BF780E0020D10F0020980C00203C0F002038410020980E0020D2
:2039BC009C0E0020ECBB0100CC0F0020C80F00202DE9FE4F0546DFF82404DFF82464027801
:2039DC00002A4CD0052A73D0062A00F08080072A18BF082A00F0F7800A2A00F0D381112A9F
:2039FC0002D0132A70D0F1E1DFF8F8331878002116F02EF804001EBF606D407810F00C0F2A
:203A1C002DD0216DC0064CBF886CC86E0622016801F10805A91C684614F092FF287800F0DC
:203A3C000F0105291BD145096946C0F3801015F09FFF002813D03168684615F095FF074625
:203A5C00316804F1380015F08FFF87420DD0606D4178C80604D440F2014015F081FFBBE18B
:203A7C00607B40F002006073B6E133681E2010FB07F6981906226946C01D14F061FF606D3C
:203A9C004178C806F0D5A17B0129EDD1DFF858038178480605D5E90703D4206D41F20A4195
:203ABC0002E0206D41F2044141804183418693E115F04CFB0028FAD10EF006FA012802D00B
:203ADC00012015F049FF87E10EF0E5F884E1DFF81C53286815F03CFF0400F7D0207903280F
:203AFC00F4D1207A00F00F01072937D1C04800684169497A4A1E11425ED0617A04F10A0370
:203B1C005A5C02F03F02252A56DBA17A8A09012A52D111F03F0F4FD0007C14F0B7FEE17A26
:203B3C00CA074CBF04F1110204F10B028B0748BF921D0B0748BF921CC90648BFD21C162179
:203B5C00127852094A43AB498B180A31EB608A5A428699898186DA89C2862DE000F00F002E
:203B7C00082829D1A17A880926D129B3A0480168087C14F08BFEE17A074688071CD50622CE
:203B9C0001F001015143601800F10C01684614F0D7FE207AC009FF280ED0694615F0E8FE83
:203BBC0050B1306800F10D01684615F0CDFE18B90521384613F04AFD2079032802D000205E
:203BDC0013F006FCFEE0DFF830B29BF802000024FF281BD014F05AFE804608F16C09D9F801
:203BFC00040015F0B5FE2A460179032901D011000CD08368197801F003008D06009003D5AE
:203C1C000124009818B9BAE01000FAD0E4E05D7803F1020A34B31AF8010B784B01902C2048
:203C3C0098F806C01F6810FB0CFC67444FF0010E87F805E0002A1F6898F806E007F11A0CD6
:203C5C00019F10FB0EFE07F01F070CF80E7098F806701B6810FB07F01844019BC3F3811325
:203C7C00C3761AD10098032808F217171AD0ADB199F8000068B108F1F4000278012A0DD1B7
:203C9C00564B1A78072A04D0082A04BFC078012804D13D217970012038709DE0584A1378EB
:203CBC00012BFAD098F8940070B32D1FEDB253462A4640460DF0C0FA00281EBF514908785B
:203CDC00002807D13D21797001203870306815F037FE81E04C4801688847064698F80610C7
:203CFC00DBF804204FF4D07041435018002280F8412108F59E700168807949080DF082FD0C
:203D1C0042490A68304690470098032819D04048416909788A0708D541690878C1074CBF73
:203D3C00E81C28461AF8000000E0812089F808002A460098C3B29BF80200514605F05CFDE2
:203D5C001DE09AF800001CB11B2804BF022D01251C2803D22F490B5C9D4205D0B870072194
:203D7C00404615F059FE0AE01C48017808295146404602D115F0B4F901E000F079FAD9F896
:203D9C00040020E0244C207830B3244D286815F0DFFD08B3017903291ED1017A8A0611D5F5
:203DBC00807AE178C0F38112914202BF217900F01F00814206D1A078002801BF6078002877
:203DDC000121A170286815F0B7FD05E0002013F0FFFA862015F038FEBDE8F78FC80F002047
:203DFC00680F0020D50F0020C00C0020BC0A0020540F0020E0070020780E0020C8400020E2
:203E1C00D20F00204B410020EC1D0020F01D0020ECBB010084BC01005C400020AC0C002006
:203E3C002DE9F04F0F46380589B018D5DFF8EC532888FF280ED0C0B214F028FD040009D016
:203E5C00A079162115F074FD204614F015FD204615F06AFDFF20288087F40060DAE1F805D8
:203E7C0008D5022015F06EF908B10CF0A0FC87F48070CFE1B80604D512F0ADFA87F0200078
:203E9C00C8E1F8070CD514F0BFFE30B100218160DFF88C03006800B1804787F00100B9E181
:203EBC00380704D513F0B7F987F00800B2E1F8060FD5002100220023069105920491039368
:203EDC00029101920091022015F02AFD87F01000A0E1B8070FD50021002306910591049110
:203EFC00039302910191009101223C2015F018FD87F002008EE179074FF01E08C94EDFF806
:203F1C0028A340F1CD80C9480022002108920791007815F09DFD0446C5488178FF2904BF64
:203F3C00002013F055FAA07A14F0B0FC05469AF8000095F82E91002805F5947B69D0606DC9
:203F5C00807A022818BF032807D130680D3015F0E3FC10B93068C11D07915946484615F085
:203F7C0007FDA0B3606D807C3368002818BF012804D11946584615F0F7FC04E05A46494665
:203F9C00184615F08DFDFF2843D018FB00F83068404406225946C01D14F0D2FC306810F8A1
:203FBC000810404400F1010BC01D41F0020908900622616DC87A00F0010085F82E01606DF9
:203FDC0000F10C0105F5947014F0BAFC21E05946484615F09DFCE0B130685A46494615F0E6
:203FFC005FFDFF2815D018FB00F8306840440D3015F092FC58B9306840440D3015F08CFC4F
:20401C00002801BF30684044417F012901D149F0020905F12C004B460178069142891209D7
:20403C0005920122698C0491C0880899029140080390CDF800B0079801900020A97915F0DD
:20405C006FFCD5F89C017B498842A8790CBF0021012115F059FC7848AB7902682C214B432F
:20407C00134401221A73AB7904684B4323445A73AB7904684B4323449A73AB7904684B431B
:20409C002344DA73AB79006811FB03F10144002008740720A9790BF046FF87F00400B9E046
:2040BC0038060FD500210023069105910491039302910191009101223B2015F031FC87F049
:2040DC008000A7E0F8045DD55C4930680C680D3015F022FC002844D13068C11D0D3015F089
:2040FC000FFC3EE0606D4178480704F13E0526D5287802281EBF03286878012830D16978B6
:20411C00306804F1380215F0CBFC8146B9F1FF0F15D0306818FB09F948440D3015F0FCFB1A
:20413C0068B930684844C11D0D3015F0E9FB30684844C11D062204F1380014F001FC287822
:20415C00022818BF03280BD130680D3015F0E4FB30B93068C11D062204F1300014F0F0FBE7
:20417C002468002CBED13648DAF8042000784FF4805111F0BDFA10B18E2015F0BDFB87F47D
:20419C00805047E0B80505D514F044FE2D4901200860FEE7780504D515F018F887F4806085
:2041BC0038E0780405D5812015F0A6FB87F4804030E0B9042DD5244C206810B1002013F048
:2041DC0007F94FF0FF3020600020204C0DF0DEFA216851F8202F684690471D494A6B086B40
:2041FC00C96A24681B4B019200900293ADF810106B46194A19491A4803921A4A079225680A
:20421C00194AA8471949086004F0ACF887F4005000E0002009B0BDE8F08F00BF36270020EA
:20423C00480F0020680F0020880E0020D70F0020780E00204DE50110C84000204C0F00200C
:20425C00C70F00207C052043380F0020200F002078200020058C0100158C0100E0250020A1
:20427C00280800201EFB0080EC0A00201C0F00202DE9F043044685B0084611F801CBDFF816
:20429C00A483DFF8A4332C22BCF1030F4FF0000904F5A47704F1660504F1F40600F0C38042
:2042BC00BCF1070F00F08081BCF10F0F0CD0BCF1110F00F02481BCF11A0F00F03681BCF1FB
:2042DC001B0F00F061818EE1707A820703D40F2184F8191159E008784A7800EB02233B80F1
:2042FC008878CA7800EB02237B8008794A7900EB0223BB808879CA7900EB0223FB80087A75
:20431C0038724A7A887A02EB00237B81C87A0A7B00EB0223BB81487B8A7B00EB0223FB819E
:20433C00C87B0A7C00EB02233B82487C8A7C00EB02237B82C87C0A7D00EB0223BB82487D17
:20435C00897D00EB0122B948FA8201788A0658BF4FF01A0913D504F5AA7004907989039109
:20437C00387A029021890191F8880090BB887A883988204615F0BCFAC8B14FF01E09707AA1
:20439C00410706D40F2084F81901204615F0ACFAF0E04A460F21204615F0A2FAF888009062
:2043BC00BB887A88A17948460FF072FFE9E004F1860079888180BA88C2800222F988018193
:2043DC000270A0F80290A18EC91DE983628E8188B1EB520F02BFC188A28E914202BF008957
:2043FC00E18EB0EB111F1CD0287C012804BF687C0F2809D0687D00281CBF687C1A2803D016
:20441C000F21A976FE2176E0FC21204615F004FBF8880090BB887A883988A07915F05CFAAB
:20443C00AFE0102167E0707AC20709D431781A200129707002D1FF220D213BE00D215AE037
:20445C0085F8009085F8069001233371082204F1B00015F03DFA0146022204F1B80015F030
:20447C0037FA04F1A80801460822404615F030FA07460821404615F027FA04F19C08042243
:20449C003946404615F024FA0421404615F01CFA04F1A00015F014FA04F1980015F00CFAD2
:2044BC006348018841F0800101803078012805D1FF220421204615F0FBF962E06E7C0F2EC4
:2044DC0018BF142E04D00E2E1CBF0C2E1A2E11D12F7C204615F0E8F90421204615F09CFA3B
:2044FC00012F05D11A2EAE7614BFFD21FB2102E0314600E00421204615F08EFA41E00E7829
:20451C003E761A2E497879766DD11868A679411C564301F806901968A37912FB03F20A4484
:20453C0082F80490A179787E56E0A77918680E785743074406F01F0117F8210FB60938B103
:20455C007878F040C00703D594F89601042805D120221A21204615F0C3F912E0F970A17942
:20457C00186812FB01F28118204681F82360002114F0EEFD28B998F800004FF4804109F026
:20459C001DF94FF0010932E0A179186851430144C88808B981F80190A179186812FB01F266
:2045BC00811881F80490ECE709780F2917D01A2919D1A1791868514301441A2081F80190E2
:2045DC00A1791B6812FB01F2991881F80490F17A01F0FB01F172A1790CF044FAD1E7717AB2
:2045FC0001F0FD0171720146204615F059F9687C1A2812D1A87C17281CBF1028FC280CD149
:20461C002E7C204615F050F9012E03BF1A20A876FB211A21204615F0FFF9484605B0BDE835
:20463C00F08300BFC70F0020C8400020200E00209C0F00202DE9F84F0422FF21684614F0A0
:20465C0089F9DFF88C63B0780024FF2800F0BE8114F01CF90546B07814F0AEFA064605F2D9
:20467C0017100178012908BF417800F0008105F1740005F5927A817B022904BF05F174019E
:20469C008C7395F89201022805F1740008BF85F89241017F022904BF05F174010C77BAF826
:2046BC000E1019B19AF80C0009F088F86889C94F288105F58D7BBA7AF879397B80184118E1
:2046DC00F87A0818797B00EB0109BBF80400BBF80010401CABF804004944BBF80200ABF8E1
:2046FC0000101018ABF80200DAF80000F0B1BA4995F806E00B681C2103F10E0C11FB0EFE02
:20471C000E331CF80E1030F811C0CC4420F811C01C2195F806C011FB0CFC13F80C3000EB42
:20473C004300B0F84A105218A0F84A2012F0AEFBF879002804BFF87A002805D1387B00285A
:20475C0004BF787B002840D0F481A046F07EC00910D0307F00F00701022907DA00F0F80240
:20477C00401C00F007001043307703E0A879002110F0E4FC2989E8892C744118287FA981DE
:20479C00012804BF688CE883A979012207200BF0CAFB787805F1740658B101212977B07833
:2047BC00002804BFB07B002803D1307F08B9688CE8839AF81400002862D0022804BFF87A9D
:2047DC00002858D18AF814405AE0A979002207200BF0A9FBEC83317F11F0070F02D1F07EDB
:2047FC00C00903D0A879002110F0A8FCB87A38B1287F01284FF0010827D1688CE88324E08D
:20481C00BBF80600401CABF806004FF00208287CD8B172490868AB7995F82E6000F11402D7
:20483C0068694FEA400C40F6C4105B0110FB06CC0CF5F660D0500968A87901EB4010C17C41
:20485C0001F0F00141F00401C174A8892989814206D088429DD2081A41F2AB02904298DAF4
:20487C00287C08B1052901D0082100E03E21284612F0ECFEAAE0787A10B102218AF81410F8
:20489C00F87BC1070DD538692968C86000F59070C86052480168A87901F114024001145097
:2048BC0014E04E48AB79026802F114015B01C858CAF810004848AB7901681C2001F1080219
:2048DC004343D0582968C860EC832C77444A50690078810702D5B87B802800D18120307038
:2048FC00404991F8200018B12946012014F026FC284609F08BFE02281BD1F079022805DB72
:20491C006A46394928460EF007FD0446284614F0C3FF01285AD020000DD022466946284686
:20493C000FF080F938B9284609F070FE012802D14CE001284AD00121284614F0A9FFFEF781
:20495C00F3FD012842D028460DF05BFD00F0F8FB264F3868002839D0B888AA7990421CBF14
:20497C004FF6FD71884231D12148007B14F08CF904002BD084F80080A8791E4960800A685A
:20499C00A879115C217105F5C9721079607196F90010A171A4F80890BBF80200608114F0CD
:2049BC0033F9050005D1FF204FF0FF312073216109E02878207314F067FF0146A86814F050
:2049DC005FFF80082061204639688847BDE8F18F780E0020980C0020980E00209C0E00205F
:2049FC00ECBB01001C3E002074220020800E0020F0250020E04000202DE9F84FDFF89403D5
:204A1C000278112A03D0122A00F0BE81C0E1DFF888331878002115F01BF805000AD100208B
:204A3C0012F0D6FC002012F0D3FCBDE8F24FFF2015F00AB805F14C0A9AF8000008B9012108
:204A5C00E972401CDAF808108AF800004A78D106DCD4E97DDAF80470C2B28A424FF000089B
:204A7C00D4D305F1280407F1900907F17306C34640F08C80A87F7075E97FB175DAF8082076
:204A9C005278930710D5EA7FD30604D5C01E707501F0EF01B175C7F874B086F800800022C9
:204ABC00B17D01F0FE016AE1910608D4E08B00B1E07E3076E08B00B1206AC9F80000DAF8A5
:204ADC0008004178CA070DD5E08B00281CBF206A002807D0C9F80000A17EE08B814238BF4A
:204AFC0008463076E87FC1060CD5B86B217800EB8100B863B86BA98CA63100EB81007867DA
:204B1C00022002E0C7F874B000203070DAF80800417811F0030F22D1007814F015FB5FEA64
:204B3C0000081CD098F8B000032809D1E87F810615D440F02000E877B07D40F020000DE030
:204B5C0068B9E87F81060AD500F0DF00E877707DA0F112017175B07D00F0DF00B075E97F1D
:204B7C00002201F0FC01284608F092F9B8F1000F36D0E87F810633D598F8B00002282FD1FA
:204B9C0041462846BDE8F44F14F0E6BAE87F81060AD500F0DF00E877707DA0F11201717506
:204BBC00B07D00F0DF00B075DAF808004178C80717D5B07D717D00F0F700891E01F03F0190
:204BDC0082075CBF891D40F00200420644BF491E00F0BF00B0757175C9F800B086F818804A
:204BFC00D6E09AF80020E87D121AD2B28907009240F18280012A07F140083FD1B86BA98CF4
:204C1C0000EB8100B863A87F00F03F00A8777075E97FB175DAF8082053785A0703D5801F6C
:204C3C00707501F0FD01B1750023707DE17E00F03F00421898F80000521CC0F3800192B2F0
:204C5C0000F0030014F0B0FE00F59B70A8841E21A88C90FBF1F18AB2B17D01F0FE012846BF
:204C7C0008F016F986F800B0E08B00B1E07E3076E08B00B1206AC9F8000089E0B86BA98C9B
:204C9C00022A00EB8100B86326D1E87FC10706D5707D811F7175B07D00F0FE00B07500236E
:204CBC00707DE17E00F03F00421898F80000521CC0F3800192B200F0030014F075FE00F52E
:204CDC009B70A8840022B17D01F0FE01284608F0DFF8607FA8F81A00617F0098491C081A6C
:204CFC00C0B201281CDDB96BAA8CA63201EB820179670221317014E0B86BA98C00EB810007
:204D1C00B863617F0098081AE97FCA06C0B207D5B96BAA8CA63201EB8201796702213170F7
:204D3C00B0B395F81F80A97FD9F80020E37E1A44C9F8002028F00108DAF8082052785307D0
:204D5C0048BF28F00208920748BF28F00808012807D1207F3076C7F874B028F0100886F86F
:204D7C0000B001F0C004404614F022FE00F03F002043707586F81680002208F0FC012846F8
:204D9C00BDE8F84F08F084B8BDE8F14F0FF059B9BDE8F18FC80F0020D50F00202DE9F0417A
:204DBC00FF2806462AD114F06BF810F01F0F22D0042011F0F1FB08B1042016E0012011F0DC
:204DDC00EBFB08B1012010E0022011F0E5FB08B102200AE0102011F0DFFB08B1102004E067
:204DFC00082011F0D9FB20B10820BDE8F04111F05BBE12F0EDFA0020BDE8F08111F054FE3F
:204E1C008046012ED8F8044046F2A81740F6C4100BD0022E5DD0042E00F0AB80082E00F0C1
:204E3C00F380102E00F04281E5E7DFF8000301688F88102011F0B0FBE8B1102011F034FEF4
:204E5C0005466E6846B9022011F0A6FB20B1022011F02AFE05466E68012011F09DFB40B16A
:204E7C00B068A0EB8701A06812F0D0FF08B94046C2E72846C0E7022011F08EFB90B10220FE
:204E9C0011F012FE06460120756811F085FB38B1A868A0EB8701A06812F0B8FF0028E6D06F
:204EBC003046A9E7042011F077FB08B10420E7E7082011F071FB30B1082011F0F5FD416854
:204EDC00002999D1D3E7012011F066FB002893D0CDE797490A689749D3690A7802EB820246
:204EFC009E18F7884743042011F056FB07F5166788B1042011F0D8FD06460220756811F069
:204F1C004BFB0028CCD0A868C11BA06812F07EFF0028C5D1ABE7082011F03EFBD8B1082095
:204F3C0011F0C2FD05466E6846B9012011F034FB20B1012011F0B8FD05466E68022011F038
:204F5C002BFB002895D0B068C11BA06812F05EFF00288ED18BE7012011F01EFB08B1012019
:204F7C00C8E7102011F018FB08B11020A5E70220AAE771490A68714953690A7803EB0216D0
:204F9C00B7894743082011F007FB07F5166780B1082011F089FD05466E6846B9012011F065
:204FBC00FBFA20B1012011F07FFD05466E680420C5E7012011F0F0FA28B1012011F074FD08
:204FDC00064604209AE7102011F0E6FA80B1102011F06AFD05466E6846B9022011F0DCFAD1
:204FFC0020B1022011F060FD05466E680420A6E7022011F0D1FA28B1022011F055FD0646EA
:20501C0004207BE704205FE714F09AF808B1D0F89070042011F0C0FA58B1042011F044FD1F
:20503C0006460820756811F0B7FA002818BF002C68E7012011F0B0FA60B1012011F034FDA7
:20505C000646082011F0A8FA002818BF002C3FF427AF0CE7102011F09FFAA8B1102011F0A2
:20507C0023FD05466E6846B9022011F095FA20B1022011F019FD05466E68082011F08CFA48
:20509C00002818BF002C5DE7022011F085FA58B1022011F009FD06460820756811F07CFAE9
:2050BC00002818BF002C2DE708200DE7032014F049F808B1D0F89870022011F06DFA50B1FD
:2050DC00022011F0F1FC0646102011F065FA002818BF002CBBE7042011F05EFA28B1042081
:2050FC0011F0E2FC0646102008E7082011F054FA80B1082011F0D8FC05466E6846B9012064
:20511C0011F04AFA20B1012011F0CEFC05466E68102014E7012011F03FFA28B1012011F0CF
:20513C00C3FC06461020E9E61020CDE6DC400020500F0020D80F0020540F0020D90F002019
:20515C002DE9FE4FDFF818536F681FB9BDE8F74F14F092BB3878DFF80CB3C34EDFF80C83E6
:20517C00012818BF02280AD004281CBF0828102805D0402818BF802800F0A78069E113F080
:20519C0085FE0028FAD0012011F006FA20B1012011F08AFC11F0ACF9082011F0FDF920B14D
:2051BC00082011F081FC11F0A3F93878FFF7F6FD814698F80100D9F80440002850D004F04E
:2051DC00E5FD13F063FB8246DAF80000009047689AF8060088F80300BCB10099484606F0F2
:2051FC0051FF022811D099F80010012902D0082965D02EE128B914F047FB00F5E8504C3056
:20521C00A0600120A87011215CE00098017880290BD10820964930700A787869012A1ABF27
:20523C00DBF824100978012114E0072030709AF8060013F0C1FC0446207BC10748BF9AF84F
:20525C00060067D48A480178786901291CBFDBF824104978C1729AF8060088F80200BFE00C
:20527C00B9F1000F11D099F800004F4509D1012818BF082801D134BBF0E0002012F0A8F8F6
:20529C0021E0012802D0082817D0E2E0002CF3D014F0FAFA0146A06801F5C241A83112F013
:2052BC00B5FD28B914F0F0FA00F5E8504C30A060112030700121A97005E0002CDCD00820B7
:2052DC00A870122131704846BFE098F80100002800F0888004F05AFD13F0D8FA8146D9F830
:2052FC0000000090D0F804A098F8020013F0CEFA019099F8060088F803003978402913D190
:20531C0099F8060013F058FC0446207BC1070BD599F8060013F0BAFA052112F097F9207B55
:20533C0000F0FE00207399E013F0AAFD10F01F0F32D0012011F030F920B1012011F0B4FB90
:20535C0011F0D6F8082011F027F920B1082011F0ABFB11F0CDF8A878FFF720FD07467C684F
:20537C00D4B1009906F08EFE022815D03978012902D008290BD00CE028B914F085FA00F564
:20539C00E8504C30A06011203070012156E0082057E0002012F01CF80198484520D00099D0
:2053BC0033480A78802A0BD10821317000780128DAF814001ABFDBF82410097801210AE090
:2053DC000722327000780128DAF814000EBF0121DBF824104978C17299F8060088F802005C
:2053FC00009832E013F04CFD10F01F0F36D0012011F0D2F820B1012011F056FB11F078F8C6
:20541C00082011F0C9F820B1082011F04DFB11F06FF8A878FFF7C2FC074638787C680128FE
:20543C0002D008280CD019E0C4B114F02DFA00F5E8504C30A060012111203070A97003E041
:20545C0064B1A870122131703846BDE8FE4F07F08BB8BDE8FE4F002011F0BABFBDE8F78FCE
:20547C0074400020ECBB0100C80F0020780E0020CC0F00202DE9F84F05004ED0DFF8E4823F
:20549C0098F80000092818BF0A2804D00B281CBF0C280D2801D1212062E1A878002114F040
:2054BC00D7FA040008BF4220F6D0AF4FA978DFF8BCA2397098F8000010B9A8788AF8000014
:2054DC0004F14806F068417801F01201022902BF706900280C2012D0607AF0B1A07B01289E
:2054FC0004D1B5F8030008B1812816DA6878402813DA204614F0BCF9B06808B907202FE155
:20551C00B561287801281FD1A07B00281CBF0128042819D19648007808B9122020E195491B
:20553C004A78824208BF0920F8D0F068417848070AD504F1220180204A7F04F1380105F02E
:20555C0035FE08B10B200BE1687808B9112007E12878DFF82492DFF824B2012840F0AF8010
:20557C0000212173F166217A012903D1B16968794871F4E0012000212072E172617325467C
:20559C0008F02CFF6060DBF8000080477C4A0146106802E06A68426000680028FAD10846EE
:2055BC00D9F8001088476968764848610021387813F0BCFD3978012211200AF0B4FCF06853
:2055DC004178C80605D5284600F0E2FF010024D0C6E0688C0EF0B0FE85F82100F068007866
:2055FC0013F0B2FD04001CBF94F8B000002807D0E87F40F02000E877687D40F018006875A3
:20561C002846FDF7C1FA0100E2D134B194F8B000012804BF284613F09DFDF0684178C807A5
:20563C001CD505F14204A18800291CBF3068002814D022788A4211D20F2014F015F968B1AD
:20565C00F06801788DF800100F20A288ADF8012021788DF80310694614F002F998F800003A
:20567C00A0B94949087800281EBFF068417811F0030F03D04548006814F0EEF8112088F817
:20569C00000001212972FFF75BFD68E0284611F0D7F900281CBFB168002960D0AA7B012A97
:2056BC0004D02A69808802EB800202E0486E2A69821895F8B810104609F0CEFA4FE0207AF6
:2056DC0000284CD0DBF80010884705463878012113F02CFD00202E4920720A683E781146C7
:2056FC000B68187A002802BF586D0378B3421FD0C9689142F4D138789AF80010884224D1A2
:20571C0013F082FA616888421FD111F0BFFB40F2014014F025F91F491F4A20480860012158
:20573C00107808F04BF8D9F800102846884716E01B4E30780128DEDD084610F0BDFE13F075
:20575C009BFA3078411E3170D5E7204614F080F8D9F8001028468847204610F03FFC002073
:20577C00BDE8F28FC80F0020D60F0020D50F0020D40F0020780E0020F01D0020EC1D0020E8
:20579C004C0F002015870000880E00206C0F0020DC400020480F0020C70F0020E15A0000A1
:2057BC00484100202DE9F043A24CA349A34E20700A22002008600D23A14840F222210270CC
:2057DC004380818085B09F4A9F48106037789F480770FF2F7178417008BFFF29B278827094
:2057FC00F378C370357905717679467114D1FF2A08BFFF2B10D1FF2D08BFFF2E0CD194496B
:20581C000A7802704B7843708A788270CB78C3700A790271497941718E4902788E4D8F4E25
:20583C008F4F0A7043784B7082788A70C378CB7002790A7140798B4A4871FF202870687048
:20585C00A870E87028716871002087490880F06B8649407808708649F06B007808701388C3
:20587C00844885490380F06BC06C08608349F06B90F83C0008708249F06B90F83D0008703A
:20589C008049F06B90F860000870F06B406901797D484A1E0270F06B7C49C0783870F06BF0
:2058BC008069086008B911F093FDF06B7849C069086008B911F08CFDF06B416D75480C223D
:2058DC0013F03EF813F0C0FFF06B7349006A086008B911F07DFDF06BDFF8C081406AC8F8AF
:2058FC00000008B911F074FDF06B6D49806A086008B911F06DFDF06B6A49C06D002840D057
:20591C0001220A75F06BC06D02681378C3F3400048B1F06BC06D02681378C3F3C000002842
:20593C000CBF01200220487500208860C8600861F06BC06D426890780870F06BC06D426803
:20595C00D0784870F06BC06D426813788B70F06BC06D42685078C870F06BC06D4268107986
:20597C000871F06BC06D426850794871F06BC06D426890798871F06BC06D4268D079C871F6
:20599C0001E000220A7501F099F907280AD105F09DFC20784FF4804107F010FF002011F08B
:2059BC0017FD43E040480168884781460CF0A4FBD8F8000001688847684612F0E9FFD8F802
:2059DC00002004208DF80000694652F8043F00209847364908600EF06BFFF068344A0188F9
:2059FC003878344B014311804846196888470C21314813F0B5FB284613F022FF13F01CFFA0
:205A1C002E4800214FF6FF7201608280F06B90F858102B48006813F0C7F80121FF2013F08E
:205A3C0085FB20784FF4005107F0C8FE05B0BDE8F08300BFC70F0020380F0020D04F005089
:205A5C00700E00203C0F0020B63F0050400E0020E8120050500E0020480E0020ECBB010088
:205A7C00C40F0020542700209E0F0020C60F0020D40F002036410020D04000204941002046
:205A9C004A41002047410020CB0F0020200F0020240F002068400020280F00202C0F002081
:205ABC00300F0020C43F0020EC1D0020D4400020A00F0020F01D0020FC0D0020800E002018
:205ADC00E84000202DE9F84FDFF8A09299F80000002113F0BDFF040004F1500602D111F068
:205AFC0077FC33E1207A08B9002140E0217B491C21733069407920B1C9B2814208BF432146
:205B1C0035D004F14508002088F8070013F055FA7168D1F80320D4F810C022F07F4240F6BF
:205B3C00C41303FB02CC4FF00B0E90FBFEFE0B2202FB1E00376880B24FF47A6148431CFAEF
:205B5C0080F0B86033688A489968216133690268B3F8030000281FBF706E0028A37B012BA7
:205B7C000CD0938801EB8301814207D33C2120460FF0F2FCBDE8F14FFFF7E2BA7D4D287874
:205B9C00022809DBD068016810680969006912F03DF908B10CF0E4FE70684178CA0604F1C2
:205BBC0022071BD5A07B01280CD100212172287810B1204613F04CFE6F480078022107F07E
:205BDC00FDFDAEE0306890F8631001F0E00141F0860180F8631069494166A2E0356805F1AB
:205BFC00020A0021AAF8001005F1730B407A0FF091FC25302076207E8AF80C0020460BF078
:205C1C0051F9207D8BF815000020617D8BF816108BF81800C5F890003888401C388080B254
:205C3C000EF08AFB84F821007068417811F0030F42D1007813F088FA00283DD000F1B0019D
:205C5C000878032806D1E27F930603D442F02002E27731E001280ED1E07F40F02000E07709
:205C7C00607D40F0180060752046FCF78DFF204613F070FA20E008B10879E8B1E07F00F034
:205C9C00DF00E077B068002804BFF068002810D17068007D83280CD0617D03280A4607D042
:205CBC00C80648BF01F0EF02100748BF02F0F70262752046FCF768FF617D002201F0FE0181
:205CDC00204607F0E5F80020AAF8300005F13E0094F8211001F03F010170A968628B01EBFF
:205CFC008201A9630021018298F80020828371684A78910709D5BA887A80A17F01F03F0102
:205D1C0041F08001A17701218183E07FC10608D5A86B7988A63100EB8100686702218BF8A8
:205D3C000010174A107888B1387F022818BF03280CD1144F38680D3013F0EEFD30B938689E
:205D5C00C11D062204F1300012F0FAFDFFF7F8F94CB17068017E480605D54946BDE8F44F29
:205D7C00032013F07DBDBDE8F18F00BFD50F0020DC40002048410020C70F002000204E0076
:205D9C00880E0020680F00202DE9FE4F01200190A24EA348A34F0278112A02D0122A0DD018
:205DBC0036E1A14C2078002113F052FE9F490546087810B100220A70F2E0002D00F01B811C
:205DDC009B48DFF87082DFF8709238600122217811200AF0A8F8286D696D009141F60802C6
:205DFC00009B96495C78E30640F1DC80044641F20443B4F802C09C451FBFB4F81AE09E4549
:205E1C00B4F832C09C454FF4A05A1CD095F80EC0BCF1010F04BFB5F89EE09E4513D0B4F846
:205E3C0002E041F20A439E451FBFB4F81AB09B45B4F832E09E4506D0BCF1010F04BFB5F829
:205E5C009EC09C4503D13380C7F800803DE0002340F2FE3B4FF0180C0CFB03FCA444BCF871
:205E7C0002E0A6F800E0BEF1010FF3D0BEF1000F55D0AEF1020EBEF1010F50D9BEEB0B0EE8
:205E9C001AD04FF48063BEEB030359D04FF4406BB3EB0B0343D09B1E012B40D91B1F3ED00B
:205EBC0040F2FA3BB3EB0B036FD05B1E61D0D81E46D0001F44D06DE0B4F800C040F6010E8D
:205EDC00F4452CD15B1C022BC4DD3868404525D1A06C0168A06C026810790831032804BF75
:205EFC0094F86C00012811D1D1F80E0000281CBF088B00280AD091F8220010F0E00F05D1A4
:205F1C0001F11E0013F094FC012870D0A6F800A0C7F80090A06C01680020087167E0A87B54
:205F3C0001281CBF0428A6F800A0C7F80090087D0028CAD08868401C002288600A82C4E7B4
:205F5C00A87B012806BF41F20243ACF80230ACF802A03088904215D1CA68088A4D8A521C07
:205F7C00CA60401C82B2AA4238BF2A464A82088208E000994A78D1064CBF816CC16E0868F1
:205F9C0000210171C7F800909FE7002011F020FA832003E0002011F01BFA842013F054FD8E
:205FBC00012038E0438E41F204455C1B1CD0A41F1AD03380408890420CD1CA68088A4C8A6B
:205FDC00521CCA60401C82B2A24238BF22464A82088206E0087D20B18868401C0022886052
:205FFC000A8241F20643C846C7F80080338001211348007809E013F0A3F858B1C088114956
:20601C000F4A308039600121107807F0D7FB01E0002001900198BDE8FE8F00BF9A0F00206A
:20603C00C80F0020480F0020D50F00204C410020756B021015190000E15A0000C43F0020A7
:20605C00C70F0020D3130100F8B5144600254FF48067DFF89862C21B84B006F18C0334D085
:20607C00921E39D0521E47D0521E52D0521E58D0521E5CD0521E00F08280921E00F08480F8
:20609C00D21E00F0B480521E00F0BF80921E00F0C880521E00F08380521E00F0C980521ECD
:2060BC0000F0D780521E00F0DA80521E46D0521E5ED0521E53D0921E00F0E580921E00F067
:2060DC00E980521E00F0F48003E1012915D12078022822DC707006E101290ED12078022821
:2060FC001BDA012804BFF178032900F0FB800028B070F0D17574E7E0012940F0E880207890
:20611C0005280ADA0328F0700AD10020B0707074DAE001296CD12078022880F2D880707338
:20613C00E1E0102964D110222146714814E001295ED12078022863DA3071D4E0012957D1CF
:20615C00207802285CDA00287071F6D00120B074602206F12C01184612F0F2FBC3E0012957
:20617C00FCD12078022802DAB07112F055FDBAE001293DD12078022842DAF072B3E0012954
:20619C0036D12078B073AEE0002931D113F028FC10B9FBF73CF81DE001207075A3E007299C
:2061BC0026D10622611C02A812F0A8F900950023217801AA02A808F0E1FAB0B9F07A10B9C5
:2061DC0013F00EFC10B1F07A012808D19DF80400FBF72EF80546502011F0C8FE1EE0716A5D
:2061FC009DF80420012088547DE034257BE001296DD1317C2078022903D0C11F0A2902D329
:20621C0065E0102863D1F0736DE001295FD1317D20783075002908BF012864D1FAF784FFFA
:20623C0061E0012953D12078032850DCF0745AE001294CD12078022849DC002847D0307415
:20625C00022803BF1020F0730120002013F0ECFA49E001293BD1207811F0B2FF43E07079C4
:20627C00002834D1602908D1002C30D060222146184612F065FB012003E0012927D134B391
:20629C002078B0742FE0012921D104B320781949087028E0D9B913F0A3FB30B9FBF75DF867
:2062BC000546502011F062FE1DE00120B0751AE001290CD12178022909DA012904BFB078A6
:2062DC0000280FD07174084612F0AEFC0BE0182509E00F2806DA022904D121880FF00EFBE3
:2062FC00054600E00225284605B0F0BD081C0020703E00204F4100202DE9F04FDFF84C9294
:20631C0004460D460020ADF1440D01461F460D9016460E9183460F91D9F808A0CDF840B0DA
:20633C000AF00AFF262803D00AF006FF252825D1308843F6070181420ED040F60201814245
:20635C0006D0B0F5C15F19D1F07B022816DD43E0F07B022812DD3FE096F8240002280DDD88
:20637C00307C0F2838D13169C1F31421B1F5803F04D00F2830D1B1F5A02F2DD1002D2BD086
:20639C0056B328784FF0010808FA00F01AEA000F22D03046594612F0E1FE65606C4DA6607F
:2063BC00A86980B110A800900DA90EAA0FAB304605F064FF0E980B214FF6FF72502311F045
:2063DC0009F9FF2808D012F08FFE82462878022804DB504613F0DCFA5C46B2E000286DD197
:2063FC0003F050F95B495C4E086840F00200086009A8C9F8006012F04FFC584E584970789F
:20641C0009AA0B9005F1DC000EF092F8554905F58C7009AA0EF08CF809A812F095FB192172
:20643C0009AB3078504A0A9005F15C000FF0A6FC4E4A05F178001A2109AB0FF09FFC4C4999
:20645C005A4605F5AA7013460FF0D8F949495A4605F5CC7013460FF0D1F947480068C0F30F
:20647C00814030B1454A05F1300004215B4611F001F9B078012802D10E2008F023F905F18C
:20649C009C0012F0E5F905F1940012F0E1F9594685F82C1085F82010072085F84002A96208
:2064BC00A960374B197085F82D100526E960354A2E6104206A6211F095FA287805EB8001DF
:2064DC00401CC1F8B440C0B22870504613F060FA1FB901A812F002FA01AF38684FF4FA7618
:2064FC00E6602060B86941466062388A6175E082F869E062786800280CBF40F6C410594637
:20651C0020612148E06120622175A061F86800B1E061786900B12062B86800B1A061C822F9
:20653C0004F1300059460BF080F804F14800594610F022FF15495A4604F1B00013460FF010
:20655C005DF9204611B0BDE8F08FC046CC210840E00F002000200940110000E03CBA0100E3
:20657C00E98401000DD700006D390100E5290100C97E010015820100B44F0050554D010021
:20659C00544100205DC80000C7750100AB9001002DE9F84F0446002000900CB910F018FF59
:2065BC0004F1500569462E68204607F035FA08B9072015E1A04641F28839DFF828B2DFF864
:2065DC0028A2002469684A7A1820604301233718A3401A420AD098F80E103AF8110038800C
:2065FC0000211BF80420BA73F97302E040F6010038800021798007F118007860387B00F018
:20661C00EF00387340F08000387398F80E10012916D1397B002C0CBF0220052001F0F001D6
:20663C000843387324B913F02FF900F57A6000E04846B860787B00F0F00040F0020017E0EF
:20665C00002C0CBF0221002100F0F0000843387324B913F019F900F57A6000E00020B86034
:20667C00022C797B0CBF0120022001F0F00108437873641C06F14800386106F16801032CCF
:20669C0079619FDB98F80E000024012808F1A80718D108F19C0070631822314612F050F9AA
:2066BC0006F118002865C5F85490397801F0F00141F005013970787800F0F00040F002000C
:2066DC00787000E07463B068C8F8100047480178397413F065F9B064454881690978CA0724
:2066FC00826912784CBF1F210F2193078269127848BF41F0200153078269107848BF41F021
:20671C004001020706F14C0248BF41F08001117054706968887C00F0030008F13E01507010
:20673C000B7863F3820050704978947061F3C3005070D47040F0100050703465746508F1D7
:20675C003800F06598F80E00012818BF042815D0A86830B1B0F803009070A968D1F8050066
:20677C003065E86830B1B0F80300D070E968D1F8050070651F4801684868F06508F130005A
:20679C00B065D07D00F0EF00D07540F08000D07500F0F00040F00600D0752869B0F80300CB
:2067BC0000280EBF144849F64041484370661349087838B15078117840F0400001F0FE01D5
:2067DC00507011700E498B78507859064CBF40F0200000F0DF005070009806F007FA002042
:2067FC00BDE8F28F506E0210F46B021046410020ECBB01006C0F002000204E00880E002008
:20681C00C00C00202DE9F04F0746F88916468A46ADF1440DC01D80B205460BF0F3FD8F4C12
:20683C00FF280BD1284604F031FC854204DD641C207800B905200EE1012000E00020617823
:20685C00D9B916B1022E18D1B8B1387AFE88BD888DF82C000023009309AAADF82A60E18E0C
:20687C0094F83300ADF82850032305F00BFB9DF834003874BDF83060BE81BD8955B3FE8931
:20689C0046B3AD1B4FF000091FFA85F84D463A7C761B202ED4BFB6B22026E06808EB050193
:2068BC0089B2334601EB423101AA12F081FB0AEB050101A8324611F025F958B9AD19FE89E7
:2068DC00ADB2AE42E3DCB9F1010F1CBF4846B88140F0BA8094F83310E58EE06801AA04236C
:2068FC008846490312F064FB019800F0FF007E2806D140467C2110F081FA019800F0FF00D6
:20691C007C2840F0A580F88942F20102C11D8EB2A9198A4240F39A80F9883A7AC1F30123A4
